:0A0000000C9467010C946F020C943D
:10000A0000000C9400000C9400000C9400000C9466
:10001A0000000C9400000C9400000C9494010C94C1
:10002A0000000C940D020C9400000C9441020C94F4
:10003A0000000C9400000C9400000C9400000C9436
:10004A0000000C9400000C9400001027E8036400E0
:10005A000A00010000100001100001000000000069
:10006A0014008000000000000100010001000000EF
:10007A00000000000000000000323031373639300D
:10008A00323400416C756E6F000000000000000001
:10009A00000000000000004578706572696D656EA9
:1000AA0074616C0000000000000000506572736FFC
:1000BA006E616C00000000000000000000000044B7
:1000CA0069676974616C00000053656E68610000BD
:1000DA00000000000A456E7472617220636F6D2021
:1000EA006469676974616C206F752073656E6861F5
:1000FA003F0A0D005B25695D203D2025730A000A31
:10010A00436F6C6F717565207375612064696769E7
:10011A0074616C206E6F206C6569746F72210A00BD
:10012A000A446967697465207375612073656E682E
:10013A00613A00436F6D616E646F20496E636F723E
:10014A007265746F210A0D000A0D42656D20766989
:10015A006E646F2061204D50522041636164656D69
:10016A006961210A0D005B315D203D205265676996
:10017A00737472617220456E74726164610A0D0053
:10018A000A456E74726164613A2025730A0D004152
:10019A00434553534F205045524D495449444F0A01
:1001AA000D000A41434553534F204E454741444FA2
:1001BA00204F55204C45495455524120494E434FF2
:1001CA0052524554410A000A42656D2076696E64AE
:1001DA006F2061204D50522041636164656D6961F1
:1001EA00210A000A5B315D203D20526567697374FC
:1001FA0072617220456E74726164610A0D0030008A
:10020A003100320033003400350036003700380040
:10021A0039000A0D41434553534F205045524D4929
:10022A005449444F0A0D000A0D41434553534F2088
:10023A004E454741444F204F552053454E48412093
:10024A00494E434F52524554410A00564147415381
:10025A00000A5B315D203D205265676973747261E3
:10026A007220456E74726164610A000A436F6D619F
:10027A006E646F20696E76616C69646F210A000A88
:10028A005361ED64612072656769737472616461B8
:10029A00210A566F6C74652053656D707265210A68
:1002AA00000080C00100020066000100070068002B
:1002BA00010060016A00010062016C000200A701EE
:1002CA00AC020000F894EE27ECBBF1E0FBBFEBBFF9
:1002DA00E5BF8DE0A2E0BB27ED938A95E9F780E0C0
:1002EA0094E0A0E6ED930197E9F7EEEAF2E0859152
:1002FA009591009761F0A591B59105901590BF0170
:10030A00F00105900D920197E1F7FB01F0CFEFE5BF
:10031A00EDBFE4E0EEBFC0E6D1E00C944304AA933B
:10032A00BA93EA93FA93EFB7EA93EDE8E2BFB4D54A
:10033A0083D6B7D5E9B3F0E0E095F095EF70F070A9
:10034A00B5D5EA2BFB2BADD5E0916201E695E0939A
:10035A006201A0916201A830B1F5E0E8E093620180
:10036A009BD53097D9F0E0916101E03011F0E1506E
:10037A0023C0A0916001A150A0936001A93031F47B
:10038A008BD5E0936501F093660118C0E091650191
:10039A00F09166018BD5EA17FB0729F0EAE0E093B2
:1003AA006001E0E009C0E0916001E03039F440907A
:1003BA00630150906401E4E1E0936101E0E0E093BD
:1003CA006301E0936401E0916201E095EBBBE9917E
:1003DA00EFBFF991E991B991A99118951A930A93E6
:1003EA00F2018F01309711F044245524F801099144
:1003FA0019910895E0EFEABBEFEFEBBBE4E0E3BF4E
:10040A00EDE8E2BFE0E0ECBFE1E0E9BF78940895EF
:10041A0052D51A930A931BB10CB1E12FEC71B1F4C6
:10042A000D3019F400E0689421F8E62D6394F0E0A9
:10043A00E959FE4F0083E0E2E61509F46624839445
:10044A00E0E2E81519F48824689420F809911991D2
:10045A0022C01A938820F1F3E92D9394F0E0E95928
:10046A00FE4F1081E0E2E91509F49924F8948A9480
:10047A007894E12F0C9491051ED5DD2061F0DA9471
:10048A00EA2DA394F0E0E957FE4FE081ECB9E0E2EF
:10049A00EA1509F4AA24E991EFBFF991E9911895AF
:1004AA001A931A2FE0E2ED15E9F3F894DD2011F41E
:1004BA005D990CC0EB2DB394F0E0E957FE4F108321
:1004CA00E0E2EB1509F4BB24D39401C01CB978947B
:1004DA000C949105EA93E1E07E2EE9911895BA937E
:1004EA00AA93EF97EF9769978FE660E070E0EEE6E0
:1004FA00F0E092D583D500E010E0EEEDF0E0E0D434
:10050A0020E030E02230E0E03E07F4F4EEEFF0E0E5
:10051A00FA93EA93F90131966F2F660F660B762FDD
:10052A00C4D5AAE0A29FF001A39FF00DDE01A9594C
:10053A00BF4FEA0FFB1F66277727B7D588E077D426
:10054A002A962F5F3F4FDECFEE85FF853097D1F099
:10055A0021FE17C0E89421F8B9D42417350774F49A
:10056A00F901DE015096EA0FFB1FFF93EF9371DF4B
:10057A00AF91BF91EC932F5F3F4FEFCFE0E0EE8753
:10058A00EF87E2CFE889F0E0E133A0E0FA0719F457
:10059A00E9E0F1E00FC0E233A0E0FA0719F4EAE279
:1005AA00F1E008C0EDE3F1E08BD4E2E5F1E088D4B4
:1005BA00E0E7F1E0FA93EA9380E039D42296A88939
:1005CA00A13309F099C0E1E0F0E0EE87FF87EE85FC
:1005DA00FF85309709F490C021FE8DC0E89421F878
:1005EA00E82DF0E0EE83FF8371D4241735077CF4FD
:1005FA00F901DE01A757BF4FEA0FFB1FFF93EF93E5
:10060A0028DFAF91BF91EC932F5F3F4FEECF20E0F1
:10061A0030E061D494F4F901DE01AB58BF4FEA0F20
:10062A00FB1F0F01DE01A757BF4FA20FB31FEC91AB
:10063A00D001EC932F5F3F4FECCF40E050E04330C6
:10064A00E0E05E073CF54CD420E030E044D4DCF432
:10065A00DE01AB58BF4FA20FB31F6C91A4E1A49F58
:10066A00F001A59FF00DDE019596EA0FFB1FE20F40
:10067A00F31FE081E61721F0E0E0EC87ED8703C085
:10068A002F5F3F4FE3CFAC85BD85119719F04F5FC0
:10069A005F4FD5CFEC85FD853097E9F0C09AC198B8
:1006AA00EAE8F1E0FA93EA93FE01E958FF4F662778
:1006BA007727FBD484E0BBD32696E9E9F1E000D49E
:1006CA00E0E0EC87ED8711D4E0E7F1E0F9D3E0E070
:1006DA00EE87EF8710C0C098C19AECEAF1E0F0D338
:1006EA00FFD3E0E0EE87EF870FD4E1EDF1E0E8D346
:1006FA00EDEEF1E0E5D36BCFA889A23309F0B1C0E2
:10070A006DDE8F01309709F469C0E030A0E1FA0785
:10071A0031F4E8E0F2E0D4D3FCD3E0E359C0E130AD
:10072A00A0E0FA0731F4EAE0F2E0CAD3F2D3E1E357
:10073A004FC0E230A0E0FA0731F4ECE0F2E0C0D3B7
:10074A00E8D3E2E345C0E430A0E0FA0731F4EEE092
:10075A00F2E0B6D3DED3E3E33BC0E031A0E0FA0730
:10076A0031F4E0E1F2E0ACD3D4D3E4E331C0E032D7
:10077A00A0E0FA0731F4E2E1F2E0A2D3CAD3E5E35A
:10078A0027C0E034A0E0FA0731F4E4E1F2E098D3BC
:10079A00C0D3E6E31DC0E030A1E0FA0731F4E6E198
:1007AA00F2E08ED3B6D3E7E313C0E030A2E0FA0753
:1007BA0031F4E8E1F2E084D3ACD3E8E309C0E030F5
:1007CA00A4E0FA0759F4EAE1F2E07AD3A2D3E9E322
:1007DA00EC93E885F9853196E887F987A885B98584
:1007EA0019970CF48DCFA885B9851997C1F420E023
:1007FA0030E02930E0E03E0794F4DE015296A20F81
:10080A00B31F0C90DE015B96A20FB31FEC91E015AB
:10081A0019F0E0E0EA87EB872F5F3F4FEACFEA85DE
:10082A00FB85309749F0C09AC198ECE1F2E048D3D1
:10083A005CD3E0E7F1E010C0C098C19AE1E3F2E0CE
:10084A003FD362D34DD3E1E0F0E0EA87FB87E1EDE5
:10085A00F1E036D3EDEEF1E0FA93EA9380E0E7D2E5
:10086A002296E0E0E887E987FE01E356FF4F0E94FF
:10087A005408CBD3EF96EF96A1960895A697EFE08A
:10088A00E883E0E0E983EABBEBBBE3E0E7BBE4E053
:10089A00E8BBE0E0E4BBE5BBE1BBE2BBE3BFE2BF30
:1008AA00ECBFEFBDEEBDEDBDECBDE7BDE6BDEBBDFA
:1008BA00EABDE9BDE8BDE2BDE5BDE4BDE3BDE9BF12
:1008CA00EBB7E064EBBFE2E0E5BFE0E4EABFE0E0FB
:1008DA00EBB9E8EDEAB9E6E8E0BDE0E0E0BDEFE259
:1008EA00E9B9E0E8E8B9E0E0E0BFE6B9EDB9E6BFAA
:1008FA00A0E1E8D078947EDDB2D012D3A0E326D36B
:10090A00A1E329D3A5E3B6D0E2EDF1E0D9D2EBE534
:10091A00F2E0D6D2C098C19821FE2BC0E89421F803
:10092A0040E050E0E82DF0E0EA83FB83EA81FB81B6
:10093A004E175F0774F4FA01DE011496EA0FFB1FE3
:10094A00FF93EF9386DDAF91BF91EC934F5F5F4FBB
:10095A00EDCFAC81A13331F4A881B981C0DDE88340
:10096A00F98307C0E5E7F2E0ABD2FAD2EBE5F2E0B1
:10097A00A7D2E1E0E71571F47724E9E8F2E0A0D222
:10098A00E881F9813196E883F983C19AE9D2EBE5E6
:10099A00F2E096D2A881B9811A972CF4E881E05D39
:1009AA001E2F00E330E3A881B9811A9724F0A881A9
:1009BA00B98150970CF00DC0D9D2AAE0EA02F00131
:1009CA00A88178D3EA1BE05D1E2FD0D2E05D0E2FFE
:1009DA0030E3A881B981509724F0EFE0F0E0E88392
:1009EA00F9839ED2A32FB2D2A02FB5D2A12F42D083
:1009FA0091CFFFCF1A931A2FE5B3EF70AE2FE12FE5
:100A0A00E07FEA2BE5BB89E18A95F1F7AA9A89E1A9
:100A1A008A95F1F7AA9889E18A95F1F77DC0AA9398
:100A2A00A881E8DFE881E295E883A881E3DF86EF21
:100A3A008A95F1F7219608951A930A931A2F0A8133
:100A4A00E12FF0E0E955FE4FE081E00FAE2FE7DF3E
:100A5A00C02E1093AB011981088123960895A2E054
:100A6A008BD2ACE0DCDFA1E087D2E0E0E093AB011F
:100A7A00CE2E08951A931A2F1A3021F0E091AC0164
:100A8A00CE1658F0E0E0EA93A091AB01AF5FA093D5
:100A9A00AB01D2DF1A3009F43FC0C394A89AA12F40
:100AAA00BEDFA89839C0ACD29D01D9012F5F3F4F54
:100ABA00EC911E2FE03019F0A12FDCDFF6CFA7D280
:100ACA00249608951A931A2FE4B3E06FE4BBA29A0E
:100ADA00A09AA19AAA98A898A9981093AC01E12F74
:100AEA00E058E093A901E12FE054E093AA01A4E1C0
:100AFA00B0E0E4D245D244D243D2A0E27BDF81E720
:100B0A0091E00197F1F7A8E28ADFA4E088DFA5E87F
:100B1A0086DFA6E084DFA3DF1991089571D28D01E3
:100B2A003C81A32FBDDCD80132D271D2259608951B
:100B3A0065D29D015E811296ED91FC9111973097D5
:100B4A00E9F0D9012AD28F01309759F00230E0E05A
:100B5A001E0760F0F80131978F01D9011496ED93C1
:100B6A00FC93D901129613D231975083D901ED9192
:100B7A00FC911197FF230AF00AD205C0D901EFEFC1
:100B8A00FFEFED93FC9341D227960895BA93AA9367
:100B9A00269734D210E0AC85BD85E0E0F0E0ED9315
:100BAA00FC93EA89FB893196EA8BFB8B3197E491B6
:100BBA002E2FE03009F408C1E12FE03031F425325C
:100BCA0011F411E001C0EED1FEC0E130A1F42532EA
:100BDA0011F4E8D1F7C012E040E000E02D3211F440
:100BEA0001E0F1C02B3211F44BE2EDC0203211F4D6
:100BFA0040E2E9C002C0E23039F450E013E02033A9
:100C0A0011F40068E0C003C0E33009F0DCC020330F
:100C1A0010F02A3308F007C0AAE05A9F502DE22F9D
:100C2A00E0535E0FD0C0E22FE33639F4C2D1E8892F
:100C3A00F989A481AA93C3D1C5C0E33729F4B9D1EC
:100C4A00C4D111D11E2F07C0E03749F4B2D1BDD1AA
:100C5A0016D11E2F086002600F7730E037C0E436E5
:100C6A0011F0E93611F4046002C0E53731F4E4E525
:100C7A00F0E0EE83FF8315E00CC0E83511F408605C
:100C8A0003C0E83709F09EC0EEE5F0E0EE83FF838B
:100C9A0014E002FF15C08DD1A889B9891496ED9187
:100CAA00FD91EA87FB87AB85AA2322F4C1D1EA87A3
:100CBA00FB874DE2403011F01F5F01C00B7F06C079
:100CCA0078D1A889B98969D1EA87FB8700FD10C064
:100CDA00151770F407FF08C002FF04C00B7F242F0A
:100CEA00115001C020E301C020E25CD15150F0CF85
:100CFA00312F01FF16C0303099F003FF06C0EE8194
:100D0A00FF812591EE83FF8305C0AE81BF812D91BE
:100D1A00AE83BF8347D1503009F051503150EBCFE9
:100D2A0048C020E3EE81FF81B6D1E887F987EE81DA
:100D3A00FF813296EE83FF83E885F985AA85BB8514
:100D4A00AE17BF0750F02F5FA885B985EA85FB85E6
:100D5A00EA1BFB0BEA87FB87EFCF2A3328F003FF56
:100D6A0002C0295F01C0295D04FD19C0213320F4A6
:100D7A00A885B985119709F409C0531710F000FF27
:100D8A0001C011C020E207FF0AC020E3006102FF90
:100D9A0006C00B7F4A9313D1503009F0515002D14B
:100DAA00503009F051503150A885B985129708F092
:100DBA00B8CF00FF07C0503029F05150E0E2EA9363
:100DCA00FED0F9CF10E0EDCEAC85BD85ED91FD9159
:100DDA001CD164960895FF92F82E26970FD1FE0132
:100DEA000024EF0DF01D46855785042E052A19F4B7
:100DFA00EFEFFFEF18C0DE011896F1D04887598748
:100E0A00E0E0EA87EB87DE011C96EED0EDE9F5E03B
:100E1A00FA93EA93DE011C96B9DE9F01A885B9858B
:100E2A00E0E0EC93F901F1D02C96FF900895FF923F
:100E3A00F82E26971A930A93DE011496D0D0E0E092
:100E4A00EC83ED83EE83EF83DE011896CDD0E3E9E0
:100E5A00F5E0FA93EA93DE01189698DE1981088183
:100E6A002896FF900895BA93AA93A991B991EE276B
:100E7A00FF276D91662311F03196FBCF0895BA933F
:100E8A00AA93AA27BB27E991F9910590002011F0AE
:100E9A001196FBCFFD010895E0916301F091640181
:100EAA000895E0936301F09364010895A0916301AA
:100EBA00B09164010895EA93FA93EFB7EA9308951B
:100ECA00FA93EA9380E0B3DF2296089520E030E0B7
:100EDA00482D55270895EE81FF812E173F07089563
:100EEA00E1E0F0E0EC87FD870895DE01A356BF4FED
:100EFA00ED91FD913197FE93EE93A0EDB7E0DED030
:100F0A00C098E4E5F1E0DCCFA0EDB7E0D7D0C19816
:100F1A000895E885F985DE015296AE0FBF1F089540
:100F2A00E5E0EA93A0E088DDFE013696FA93EA93BB
:100F3A00E5E5F2E0FA93EA9380E04DDF2496DE01DC
:100F4A001696B1DDE6E0EA93A1E076CD93DDE7E01F
:100F5A00EA93A1E071CD8EDDE8E0EA93A1E06CCDE1
:100F6A00A8EEB3E0ABD0E1EDF1E0AACFA881B98158
:100F7A00EAE0F0E07DD0089552DDA3E0B0E09EC043
:100F8A00A0E338DD81E791E00197F1F70895ED914B
:100F9A00FD913196FE93EE9308951496ED91FC918E
:100FAA00119708952A93AD85BE85EF85F88909952D
:100FBA000895E889F9893497E88BF98B0895AD8506
:100FCA00BE85EF85F88909950895A889B989149687
:100FDA00ED91FD91EE83FF83AE81BF8108950024D8
:100FEA00AF0DB01D8D0108950024AF0DB01DED9118
:100FFA00FD91FA93EA931A930A9308955A934A939E
:10100A003A932A931A930A9308955D814C813B81FE
:10101A002A81198108810895AF93BF93DB01AC0F30
:10102A00BD1F05900D928A95E1F7BF91AF91089582
:10103A00F195E195F0400895EE0FFF1FEE0FFF1FA7
:10104A00EE0FFF1FEE0FFF1F08950024112490E1F9
:10105A00AA0FBB1F001C111C0E1A1F0A18F40E0E31
:10106A001F1E01C0A1609A9599F7FD01D00108954C
:10107A0004D0EBDF0EF4DCDF0895E894F7FF02C03A
:10108A00D7DF6894B7FF06C0B195A195B04000F8C4
:10109A00039400FA08950590F491E02D08950F92B3
:1010AA000190F081E02D0F9008957A936A93FA9354
:1010BA00EA9308951A2EAE2FE12D0895109639F06D
:1010CA00A89586E69EE00197F1F71197C9F708956A
:00000001FF
